:020000040000FA
:100000000000BA28203083168500831285019814D9
:10001000181598111816831234083304031D342858
:100020008312B90A0319BA0A39088312A00083128D
:100030003A088312A1002008073A031D2728210847
:10004000003A031D272801308312B900BA01831238
:10005000A0018312851E2E288312A00A8312200875
:100060008312B300B4010B2883123A08803E803E0D
:10007000031D3C2801303902031C752883123A08FD
:10008000803E803E031D462807303902031875283C
:10009000831239038312A000003083128A00573084
:1000A00083122007031C562883128A0A82005D28C7
:1000B0006128652869286D28712801308312850020
:1000C0007728023083128500772803308312850059
:1000D0007728043083128500772805308312850045
:1000E00077280630831285007728831285018312D2
:1000F000A001A101FB308312A2000430A3008312EF
:10010000B90A0319BA0A39088312A40083123A08FB
:100110008312A5002408073A031D96282508003AF3
:10012000031D962801308312B900BA01FF308312F3
:100130002207A400FF30A50023080318230FA507FA
:100140002408A2002508A30025082404031D7F28F5
:10015000A00A0319A10A03302102031DB128E830C7
:100160002002031C7A28831285018312B301B40193
:100170000B2808001B30FE000230FF00803000001A
:100180000000FA210000000083160000B5007F087F
:10019000B4001D30B6000230B700831600003408EA
:1001A000B8003508B900FF30B407031CB50339089F
:1001B00038040319522904303607B800B901B90DC3
:1001C0003708B9073808FE003908FF008030000002
:1001D0000000FA210000000083160000BB007F0829
:1001E000BA003608FE003708FF008030000000002B
:1001F000FA210000000083160000BD00B9007F084E
:10020000B800BC0002303607B800B901B90D370894
:10021000B9073808FE003908FF00803000000000F0
:10022000FA210000000083160000B900BF007F081B
:10023000BE00B800831600003A08BE003B08BF00AD
:10024000FF30BA07031CBB033F083E0403194B29C8
:100250003C08FE003D08FF00803000000000E72160
:100260000000000083160000BE003808831203134C
:100270008400831383160000391883173E08831205
:100280000313800083160000BC0A0319BD0AB80AD4
:100290000319B90A1A29063083160000B607031895
:1002A000B70ACD2800000000022808008312A6002B
:1002B0007F08A7002608A80027040319B9292708E2
:1002C000013A031D67292808003A0319BC29831243
:1002D0002708023A031D70292808003A0319C0298B
:1002E00083122708033A031D79292808003A0319C5
:1002F000C42983122708043A031D82292808003ADA
:100300000319C82983122708053A031D8B292808D9
:10031000003A0319CC2983122708063A031D9429B1
:100320002808003A0319D02983122708073A031D29
:100330009D292808003A0319D42983122708083A6E
:10034000031DA6292808003A0319D8298312270873
:10035000093A031DAF292808003A0319DC29831242
:100360002708633A031DB8292808003A0319E02931
:10037000E42983128501E629013083128500E629EC
:10038000023083128500E629033083128500E629B6
:10039000043083128500E629053083128500E629A2
:1003A000063083128500E629073083128500E6298E
:1003B000103083128500E629113083128500E6296A
:1003C000123083128500E629831285010800003A65
:1003D0000319EE29803A0319F52900347E088400B8
:1003E00083137F188317000808007F088A007E089F
:1003F00082000800003A0319022A803A03190C2AE5
:10040000FF0100347E08840083137F1883170008DF
:10041000FF00840A0008080000000000F521FD002C
:10042000FE0FFF03FF0A00000000F521FC007D081D
:10043000FF007C080800073400347234023433347F
:10044000003402340034743402343534003402345D
:1004500000347634023437340034023400347834D3
:10046000023439340034023400347A3402343B34F8
:100470000034023400347C3402343D34003402341D
:1004800000347E3402343F340034013400348312AB
:10049000AA007F08A900AB01AC0183122A082C0234
:1004A000031D542A29082B020318712AFB308312DA
:1004B000AD000430AE00FF3083122D07AF00FF30D7
:1004C000B0002E0803182E0FB0072F08AD0030081B
:1004D000AE0030082F04031D5B2AAB0A0319AC0AD7
:1004E0004D2A080000340034003400340034003455
:0E04F0000134003496340034013400340034FA
:00000001FF
