:020000040000FA
:10000000000002286330FE000130FF008030000055
:10001000000042210000000083160000B5007F08A8
:10002000B4006530B6000130B70083160000340814
:10003000B8003508B900FF30B407031CB503390810
:10004000380403199A2804303607B800B901B90DED
:100050003708B9073808FE003908FF008030000073
:10006000000042210000000083160000BB007F0852
:10007000BA003608FE003708FF008030000000009C
:1000800042210000000083160000BD00B9007F0877
:10009000B800BC0002303607B800B901B90D370806
:1000A000B9073808FE003908FF0080300000000062
:1000B00042210000000083160000B900BF007F0845
:1000C000BE00B800831600003A08BE003B08BF001F
:1000D000FF30BA07031CBB033F083E0403199328F3
:1000E0003C08FE003D08FF008030000000002F218A
:1000F0000000000083160000BE00380883120313BE
:100100008400831383160000391883173E08831276
:100110000313800083160000BC0A0319BD0AB80A45
:100120000319B90A6228063083160000B6070318BF
:10013000B70A152800000000BA2908008312A000A1
:100140007F08A1002008A200210403190129210829
:10015000013A031DAF282208003A0319042983122B
:100160002108023A031DB8282208003A0319082979
:1001700083122108033A031DC1282208003A0319FB
:100180000C2983122108043A031DCA282208003AC8
:100190000319102983122108053A031DD3282208C8
:1001A000003A0319142983122108063A031DDC289A
:1001B0002208003A0319182983122108073A031D5F
:1001C000E5282208003A03191C2983122108083A5D
:1001D000031DEE282208003A031920298312210862
:1001E000093A031DF7282208003A0319242983122B
:1001F0002108633A031D00292208003A031928291F
:100200002C29831285012E290130831285002E2985
:100210000230831285002E290330831285002E2997
:100220000430831285002E290530831285002E2983
:100230000630831285002E290730831285002E296F
:100240001030831285002E291130831285002E294B
:100250001230831285002E29831285010800003A8E
:1002600003193629803A03193D2900347E08840099
:1002700083137F188317000808007F088A007E0810
:1002800082000800003A03194A29803A03195429C8
:10029000FF0100347E08840083137F188317000851
:1002A000FF00840A00080800000000003D21FD0056
:1002B000FE0FFF03FF0A000000003D21FC007D0847
:1002C000FF007C08080007340034C53401342D34A5
:1002D000003402340034C73401342F340034023483
:1002E0000034C93401343134003402340034CB34A6
:1002F00001343334003402340034CD340134353425
:10030000003402340034CF34013437340034023442
:100310000034D134013439340034013400348312D0
:10032000A4007F08A300A501A601831224082602C9
:10033000031D9C29230825020318B929FB308312C9
:10034000A7000430A800FF3083122707A900FF3060
:10035000AA0028080318280FAA072908A7002A08B6
:10036000A8002A082904031DA329A50A0319A60A1F
:1003700095290800831685013F3083128500981463
:10038000181598111816C3290800003400340034D9
:100390000034003400340034003496340034013426
:0403A00000340034F1
:00000001FF
